{
  "contractName": "DepositFactory",
  "abi": [
    {
      "inputs": [
        {
          "internalType": "address",
          "name": "_templateAddress",
          "type": "address"
        },
        {
          "internalType": "address",
          "name": "_trustedOwner",
          "type": "address"
        },
        {
          "internalType": "address",
          "name": "_recipient",
          "type": "address"
        }
      ],
      "payable": false,
      "stateMutability": "nonpayable",
      "type": "constructor"
    },
    {
      "anonymous": false,
      "inputs": [
        {
          "indexed": true,
          "internalType": "address payable",
          "name": "at",
          "type": "address"
        }
      ],
      "name": "Deployed",
      "type": "event"
    },
    {
      "constant": true,
      "inputs": [],
      "name": "recipient",
      "outputs": [
        {
          "internalType": "address",
          "name": "",
          "type": "address"
        }
      ],
      "payable": false,
      "stateMutability": "view",
      "type": "function"
    },
    {
      "constant": true,
      "inputs": [],
      "name": "templateAddress",
      "outputs": [
        {
          "internalType": "address",
          "name": "",
          "type": "address"
        }
      ],
      "payable": false,
      "stateMutability": "view",
      "type": "function"
    },
    {
      "constant": true,
      "inputs": [],
      "name": "trustedOwner",
      "outputs": [
        {
          "internalType": "address",
          "name": "",
          "type": "address"
        }
      ],
      "payable": false,
      "stateMutability": "view",
      "type": "function"
    },
    {
      "constant": false,
      "inputs": [
        {
          "internalType": "address",
          "name": "newOwner",
          "type": "address"
        }
      ],
      "name": "replaceOwner",
      "outputs": [],
      "payable": false,
      "stateMutability": "nonpayable",
      "type": "function"
    },
    {
      "constant": false,
      "inputs": [
        {
          "internalType": "address",
          "name": "newRecipient",
          "type": "address"
        }
      ],
      "name": "replaceRecipient",
      "outputs": [],
      "payable": false,
      "stateMutability": "nonpayable",
      "type": "function"
    },
    {
      "constant": false,
      "inputs": [
        {
          "internalType": "uint256",
          "name": "salt",
          "type": "uint256"
        }
      ],
      "name": "create",
      "outputs": [
        {
          "internalType": "address",
          "name": "",
          "type": "address"
        }
      ],
      "payable": false,
      "stateMutability": "nonpayable",
      "type": "function"
    }
  ],
  "bytecode": "0x608060405234801561001057600080fd5b506040516105ea3803806105ea8339818101604052606081101561003357600080fd5b5080516020820151604090920151600080546001600160a01b039384166001600160a01b031991821617909155600180549484169482169490941790935560028054929091169190921617905561055b8061008f6000396000f3fe608060405234801561001057600080fd5b50600436106100725760003560e01c806366d003ac1161005057806366d003ac146100cb578063780900dc146100d3578063a39a45b7146100f057610072565b80630c5a6f2f146100775780632d614fd91461009b57806359c37cc9146100c3575b600080fd5b61007f610116565b604080516001600160a01b039092168252519081900360200190f35b6100c1600480360360208110156100b157600080fd5b50356001600160a01b0316610125565b005b61007f6101ed565b61007f6101fc565b61007f600480360360208110156100e957600080fd5b503561020b565b6100c16004803603602081101561010657600080fd5b50356001600160a01b0316610340565b6000546001600160a01b031681565b6001546001600160a01b0316331461016e5760405162461bcd60e51b81526004018080602001828103825260308152602001806104f76030913960400191505060405180910390fd5b6001600160a01b0381166101b35760405162461bcd60e51b81526004018080602001828103825260258152602001806104806025913960400191505060405180910390fd5b600280547fffffffffffffffffffffffff0000000000000000000000000000000000000000166001600160a01b0392909216919091179055565b6001546001600160a01b031681565b6002546001600160a01b031681565b600080548190610224906001600160a01b031684610408565b600154600254604080517ff09a40160000000000000000000000000000000000000000000000000000000081526001600160a01b03938416600482015291831660248301525192935083929183169163f09a40169160448082019260009290919082900301818387803b15801561029a57600080fd5b505af11580156102ae573d6000803e3d6000fd5b50505050806001600160a01b03166335faa4166040518163ffffffff1660e01b8152600401600060405180830381600087803b1580156102ed57600080fd5b505af1158015610301573d6000803e3d6000fd5b50506040516001600160a01b03851692507ff40fcec21964ffb566044d083b4073f29f7f7929110ea19e1b3ebe375d89055e9150600090a25050919050565b6001546001600160a01b031633146103895760405162461bcd60e51b81526004018080602001828103825260318152602001806104c66031913960400191505060405180910390fd5b6001600160a01b0381166103ce5760405162461bcd60e51b81526004018080602001828103825260218152602001806104a56021913960400191505060405180910390fd5b600180547fffffffffffffffffffffffff0000000000000000000000000000000000000000166001600160a01b0392909216919091179055565b6000808360601b90506040517f3d602d80600a3d3981f3363d3d373d3d3d363d7300000000000000000000000081528160148201527f5af43d82803e903d91602b57fd5bf300000000000000000000000000000000006028820152836037826000f59250823b61047757600080fd5b50509291505056fe4465706f7369743a206e6577526563697069656e742063616e6e6f7420626520656d7074794465706f7369743a206e65774f776e65722063616e6e6f7420626520656d7074794465706f7369743a204f6e6c7920747275737465644f776e65722063616e207265706c616365207468656d73656c7665734465706f7369743a204f6e6c7920747275737465644f776e65722063616e207265706c61636520726563697069656e74a265627a7a7231582099357da90b15a23226e5d8c869a864e8d6594d3e1716aaedaf92516626657adb64736f6c634300050c0032",
  "source": "pragma solidity 0.5.12;\n\nimport \"./CloneFactory.sol\";\nimport \"./Deposit.sol\";\n\ncontract DepositFactory is CloneFactory {\n    event Deployed(address payable indexed at);\n    address public templateAddress;\n\n    address public trustedOwner;\n    address public recipient;\n\n    constructor (address _templateAddress, address _trustedOwner, address _recipient) public {\n        templateAddress = _templateAddress;\n        trustedOwner = _trustedOwner;\n        recipient = _recipient;\n    }\n\n    function replaceOwner (address newOwner) external {\n        require(msg.sender == trustedOwner, \"Deposit: Only trustedOwner can replace themselves\");\n        require(address(0) != newOwner, \"Deposit: newOwner cannot be empty\");\n\n        trustedOwner = newOwner;\n    }\n\n    function replaceRecipient (address newRecipient) external {\n        require(msg.sender == trustedOwner, \"Deposit: Only trustedOwner can replace recipient\");\n        require(address(0) != newRecipient, \"Deposit: newRecipient cannot be empty\");\n\n        recipient = newRecipient;\n    }\n\n    function create(uint256 salt) external returns(address) {\n        address payable spawned = super.create2Clone(templateAddress, salt);\n        Deposit c = Deposit(spawned);\n        c.init(trustedOwner, recipient);\n        c.sweep();\n        emit Deployed(spawned);\n    }\n}\n",
  "sourcePath": "/Users/emilbayes/development/hyperdivision/eth-multisig-wallet/contracts/DepositFactory.sol",
  "compiler": {
    "name": "solc",
    "version": "0.5.12+commit.7709ece9.Emscripten.clang"
  },
  "schemaVersion": "3.0.19",
  "updatedAt": "2020-03-06T14:28:11.030Z",
  "devdoc": {
    "methods": {}
  },
  "userdoc": {
    "methods": {}
  }
}