{
  "contractName": "Deposit",
  "abi": [
    {
      "inputs": [
        {
          "internalType": "address",
          "name": "_trustedOwner",
          "type": "address"
        },
        {
          "internalType": "address",
          "name": "_recipient",
          "type": "address"
        }
      ],
      "payable": false,
      "stateMutability": "nonpayable",
      "type": "constructor"
    },
    {
      "anonymous": false,
      "inputs": [
        {
          "indexed": true,
          "internalType": "address",
          "name": "to",
          "type": "address"
        },
        {
          "indexed": false,
          "internalType": "uint256",
          "name": "amount",
          "type": "uint256"
        }
      ],
      "name": "DepositForwarded",
      "type": "event"
    },
    {
      "anonymous": false,
      "inputs": [
        {
          "indexed": true,
          "internalType": "address",
          "name": "to",
          "type": "address"
        },
        {
          "indexed": false,
          "internalType": "uint256",
          "name": "amount",
          "type": "uint256"
        }
      ],
      "name": "DepositSweep",
      "type": "event"
    },
    {
      "anonymous": false,
      "inputs": [
        {
          "indexed": true,
          "internalType": "address",
          "name": "ERC20Address",
          "type": "address"
        },
        {
          "indexed": true,
          "internalType": "address",
          "name": "to",
          "type": "address"
        },
        {
          "indexed": false,
          "internalType": "uint256",
          "name": "amount",
          "type": "uint256"
        }
      ],
      "name": "DepositSweepERC20",
      "type": "event"
    },
    {
      "payable": true,
      "stateMutability": "payable",
      "type": "fallback"
    },
    {
      "constant": true,
      "inputs": [],
      "name": "recipient",
      "outputs": [
        {
          "internalType": "address",
          "name": "",
          "type": "address"
        }
      ],
      "payable": false,
      "stateMutability": "view",
      "type": "function"
    },
    {
      "constant": true,
      "inputs": [],
      "name": "trustedOwner",
      "outputs": [
        {
          "internalType": "address",
          "name": "",
          "type": "address"
        }
      ],
      "payable": false,
      "stateMutability": "view",
      "type": "function"
    },
    {
      "constant": false,
      "inputs": [
        {
          "internalType": "address",
          "name": "_trustedOwner",
          "type": "address"
        },
        {
          "internalType": "address",
          "name": "_recipient",
          "type": "address"
        }
      ],
      "name": "init",
      "outputs": [],
      "payable": false,
      "stateMutability": "nonpayable",
      "type": "function"
    },
    {
      "constant": false,
      "inputs": [
        {
          "internalType": "address",
          "name": "newOwner",
          "type": "address"
        }
      ],
      "name": "replaceOwner",
      "outputs": [],
      "payable": false,
      "stateMutability": "nonpayable",
      "type": "function"
    },
    {
      "constant": false,
      "inputs": [
        {
          "internalType": "address",
          "name": "newRecipient",
          "type": "address"
        }
      ],
      "name": "replaceRecipient",
      "outputs": [],
      "payable": false,
      "stateMutability": "nonpayable",
      "type": "function"
    },
    {
      "constant": false,
      "inputs": [
        {
          "internalType": "address",
          "name": "ERC20Address",
          "type": "address"
        },
        {
          "internalType": "uint256",
          "name": "gasLimit",
          "type": "uint256"
        }
      ],
      "name": "sweepERC20",
      "outputs": [],
      "payable": false,
      "stateMutability": "nonpayable",
      "type": "function"
    },
    {
      "constant": false,
      "inputs": [],
      "name": "sweep",
      "outputs": [],
      "payable": false,
      "stateMutability": "nonpayable",
      "type": "function"
    }
  ],
  "bytecode": "0x608060405234801561001057600080fd5b50604051610b66380380610b668339818101604052604081101561003357600080fd5b508051602090910151600080546001600160a01b039384166001600160a01b03199182161790915560018054939092169216919091179055610aec8061007a6000396000f3fe6080604052600436106100705760003560e01c806366d003ac1161004e57806366d003ac14610254578063a39a45b714610269578063e6d119991461029c578063f09a4016146102d557610070565b80632d614fd9146101d957806335faa4161461020e57806359c37cc914610223575b36156100ad5760405162461bcd60e51b8152600401808060200182810382526032815260200180610a006032913960400191505060405180910390fd5b600034116100ec5760405162461bcd60e51b815260040180806020018281038252602a8152602001806109ae602a913960400191505060405180910390fd5b6001546040516000916001600160a01b03169034908381818185875af1925050503d8060008114610139576040519150601f19603f3d011682016040523d82523d6000602084013e61013e565b606091505b5050905080610194576040805162461bcd60e51b815260206004820152601760248201527f4465706f7369743a20466f7277617264206661696c6564000000000000000000604482015290519081900360640190fd5b6001546040805134815290516001600160a01b03909216917f308e960cb92601e783c061146fac4c54a45a1e2761ed1b9c749ed7417fa46b6f9181900360200190a250005b3480156101e557600080fd5b5061020c600480360360208110156101fc57600080fd5b50356001600160a01b0316610310565b005b34801561021a57600080fd5b5061020c6103cd565b34801561022f57600080fd5b5061023861050f565b604080516001600160a01b039092168252519081900360200190f35b34801561026057600080fd5b5061023861051e565b34801561027557600080fd5b5061020c6004803603602081101561028c57600080fd5b50356001600160a01b031661052d565b3480156102a857600080fd5b5061020c600480360360408110156102bf57600080fd5b506001600160a01b0381351690602001356105ea565b3480156102e157600080fd5b5061020c600480360360408110156102f857600080fd5b506001600160a01b0381358116916020013516610812565b6000546001600160a01b031633146103595760405162461bcd60e51b8152600401808060200182810382526030815260200180610a886030913960400191505060405180910390fd5b6001600160a01b03811661039e5760405162461bcd60e51b81526004018080602001828103825260258152602001806109686025913960400191505060405180910390fd5b6001805473ffffffffffffffffffffffffffffffffffffffff19166001600160a01b0392909216919091179055565b303180610421576040805162461bcd60e51b815260206004820152601b60248201527f4465706f7369743a2043616e6e6f7420737765657020656d7074790000000000604482015290519081900360640190fd5b6001546040516000916001600160a01b03169083908381818185875af1925050503d806000811461046e576040519150601f19603f3d011682016040523d82523d6000602084013e610473565b606091505b50509050806104c9576040805162461bcd60e51b815260206004820152601560248201527f4465706f7369743a205377656570206661696c65640000000000000000000000604482015290519081900360640190fd5b6001546040805184815290516001600160a01b03909216917fc68ebcc13c5ebd6e7ee37fc5b0fe17b5360155dc4d420f93bc57d99e3e415a9f9181900360200190a25050565b6000546001600160a01b031681565b6001546001600160a01b031681565b6000546001600160a01b031633146105765760405162461bcd60e51b8152600401808060200182810382526031815260200180610a576031913960400191505060405180910390fd5b6001600160a01b0381166105bb5760405162461bcd60e51b815260040180806020018281038252602181526020018061098d6021913960400191505060405180910390fd5b6000805473ffffffffffffffffffffffffffffffffffffffff19166001600160a01b0392909216919091179055565b604080517f70a08231000000000000000000000000000000000000000000000000000000008152306004820181905291518492916000916001600160a01b038516916370a08231916024808301926020929190829003018186803b15801561065157600080fd5b505afa158015610665573d6000803e3d6000fd5b505050506040513d602081101561067b57600080fd5b50519050806106d1576040805162461bcd60e51b815260206004820181905260248201527f4465706f7369743a2043616e6e6f74207377656570455243323020656d707479604482015290519081900360640190fd5b600154604080517fa9059cbb0000000000000000000000000000000000000000000000000000000081526001600160a01b03928316600482015260248101849052905160009286169163a9059cbb91889160448082019260209290919082900301818888803b15801561074357600080fd5b5087f1158015610757573d6000803e3d6000fd5b50505050506040513d602081101561076e57600080fd5b50519050806107c4576040805162461bcd60e51b815260206004820152601b60248201527f4465706f7369743a204552433230207377656570206661696c65640000000000604482015290519081900360640190fd5b6001546040805184815290516001600160a01b03928316928916917f6652f9270a30b5a09feafba9d51a7daf801570429b4cabbd5bf2439fcd79171e919081900360200190a3505050505050565b6000546001600160a01b03161561085a5760405162461bcd60e51b81526004018080602001828103825260288152602001806109d86028913960400191505060405180910390fd5b6001546001600160a01b0316156108a25760405162461bcd60e51b8152600401808060200182810382526025815260200180610a326025913960400191505060405180910390fd5b6001600160a01b0382166108e75760405162461bcd60e51b81526004018080602001828103825260288152602001806109d86028913960400191505060405180910390fd5b6001600160a01b03811661092c5760405162461bcd60e51b8152600401808060200182810382526025815260200180610a326025913960400191505060405180910390fd5b600080546001600160a01b0393841673ffffffffffffffffffffffffffffffffffffffff19918216179091556001805492909316911617905556fe4465706f7369743a206e6577526563697069656e742063616e6e6f7420626520656d7074794465706f7369743a206e65774f776e65722063616e6e6f7420626520656d7074794465706f7369743a2066616c6c6261636b2066756e6374696f6e206d75737420686176652076616c75654465706f7369743a20696e697420747275737465644f776e65722063616e6e6f74206265207365744465706f7369743a2066616c6c6261636b2066756e6374696f6e20646f6573206e6f742074616b6520617267756d656e74734465706f7369743a20696e697420726563697069656e742063616e6e6f74206265207365744465706f7369743a204f6e6c7920747275737465644f776e65722063616e207265706c616365207468656d73656c7665734465706f7369743a204f6e6c7920747275737465644f776e65722063616e207265706c61636520726563697069656e74a265627a7a723158201da4d8702c29092dd41beade7e26b42339b0656ef9235113911777bbaa170b9e64736f6c634300050c0032",
  "source": "pragma solidity 0.5.12;\n\nimport \"./IERC20.sol\";\n\ncontract Deposit {\n    event DepositForwarded(address indexed to, uint256 amount);\n    event DepositSweep(address indexed to, uint256 amount);\n    event DepositSweepERC20(address indexed ERC20Address, address indexed to, uint256 amount);\n\n    address public trustedOwner;\n    address public recipient;\n\n    constructor (address _trustedOwner, address _recipient) public {\n        trustedOwner = _trustedOwner;\n        recipient = _recipient;\n    }\n\n    function init (address _trustedOwner, address _recipient) public {\n        require(address(0) == trustedOwner, \"Deposit: init trustedOwner cannot be set\");\n        require(address(0) == recipient, \"Deposit: init recipient cannot be set\");\n        require(address(0) != _trustedOwner, \"Deposit: init trustedOwner cannot be set\");\n        require(address(0) != _recipient, \"Deposit: init recipient cannot be set\");\n\n        trustedOwner = _trustedOwner;\n        recipient = _recipient;\n    }\n\n    function replaceOwner (address newOwner) external {\n        require(msg.sender == trustedOwner, \"Deposit: Only trustedOwner can replace themselves\");\n        require(address(0) != newOwner, \"Deposit: newOwner cannot be empty\");\n\n        trustedOwner = newOwner;\n    }\n\n    function replaceRecipient (address newRecipient) external {\n        require(msg.sender == trustedOwner, \"Deposit: Only trustedOwner can replace recipient\");\n        require(address(0) != newRecipient, \"Deposit: newRecipient cannot be empty\");\n\n        recipient = newRecipient;\n    }\n\n    function ()\n        external\n        payable\n    {\n        require(msg.data.length == 0, \"Deposit: fallback function does not take arguments\");\n        require(msg.value > 0, \"Deposit: fallback function must have value\");\n        // Since we only forward to a trusted contract, and we want to forward\n        // the gas stipend also\n        // solium-disable-next-line security/no-call-value\n        (bool success, ) = recipient.call.value(msg.value)(\"\");\n        require(success, \"Deposit: Forward failed\");\n        emit DepositForwarded(recipient, msg.value);\n    }\n\n    function sweepERC20(address ERC20Address, uint256 gasLimit) external {\n        IERC20 erc20Contract = IERC20(ERC20Address);\n\n        address self = address(this);\n        uint256 balance = erc20Contract.balanceOf(self);\n        require(balance > 0, \"Deposit: Cannot sweepERC20 empty\");\n\n        bool success = erc20Contract.transfer.gas(gasLimit)(recipient, balance);\n        require(success, \"Deposit: ERC20 sweep failed\");\n        emit DepositSweepERC20(ERC20Address, recipient, balance);\n    }\n\n    function sweep () external {\n        uint256 balance = address(this).balance;\n        require(balance > 0, \"Deposit: Cannot sweep empty\");\n        // solium-disable-next-line security/no-call-value\n        (bool success, ) = recipient.call.value(balance)(\"\");\n        require(success, \"Deposit: Sweep failed\");\n        emit DepositSweep(recipient, balance);\n    }\n}\n",
  "sourcePath": "/Users/emilbayes/development/hyperdivision/eth-multisig-wallet/contracts/Deposit.sol",
  "compiler": {
    "name": "solc",
    "version": "0.5.12+commit.7709ece9.Emscripten.clang"
  },
  "schemaVersion": "3.0.19",
  "updatedAt": "2020-02-25T02:29:38.720Z",
  "devdoc": {
    "methods": {}
  },
  "userdoc": {
    "methods": {}
  }
}