{
  "contractName": "PullWithdrawable",
  "abi": [
    {
      "inputs": [
        {
          "internalType": "address payable",
          "name": "_trustedOwner",
          "type": "address"
        }
      ],
      "payable": false,
      "stateMutability": "nonpayable",
      "type": "constructor"
    },
    {
      "anonymous": false,
      "inputs": [
        {
          "indexed": true,
          "internalType": "address",
          "name": "to",
          "type": "address"
        },
        {
          "indexed": false,
          "internalType": "uint256",
          "name": "amount",
          "type": "uint256"
        }
      ],
      "name": "Withdrawal",
      "type": "event"
    },
    {
      "anonymous": false,
      "inputs": [
        {
          "indexed": true,
          "internalType": "address",
          "name": "ERC20Address",
          "type": "address"
        },
        {
          "indexed": true,
          "internalType": "address",
          "name": "to",
          "type": "address"
        },
        {
          "indexed": false,
          "internalType": "uint256",
          "name": "amount",
          "type": "uint256"
        }
      ],
      "name": "WithdrawalERC20",
      "type": "event"
    },
    {
      "payable": true,
      "stateMutability": "payable",
      "type": "fallback"
    },
    {
      "constant": true,
      "inputs": [],
      "name": "trustedOwner",
      "outputs": [
        {
          "internalType": "address payable",
          "name": "",
          "type": "address"
        }
      ],
      "payable": false,
      "stateMutability": "view",
      "type": "function"
    },
    {
      "constant": true,
      "inputs": [
        {
          "internalType": "address",
          "name": "",
          "type": "address"
        }
      ],
      "name": "withdrawals",
      "outputs": [
        {
          "internalType": "uint256",
          "name": "",
          "type": "uint256"
        }
      ],
      "payable": false,
      "stateMutability": "view",
      "type": "function"
    },
    {
      "constant": true,
      "inputs": [
        {
          "internalType": "address",
          "name": "",
          "type": "address"
        },
        {
          "internalType": "address",
          "name": "",
          "type": "address"
        }
      ],
      "name": "withdrawalsERC20",
      "outputs": [
        {
          "internalType": "uint256",
          "name": "",
          "type": "uint256"
        }
      ],
      "payable": false,
      "stateMutability": "view",
      "type": "function"
    },
    {
      "constant": false,
      "inputs": [
        {
          "internalType": "address payable",
          "name": "newOwner",
          "type": "address"
        }
      ],
      "name": "replaceOwner",
      "outputs": [],
      "payable": false,
      "stateMutability": "nonpayable",
      "type": "function"
    },
    {
      "constant": false,
      "inputs": [
        {
          "internalType": "address[]",
          "name": "recipients",
          "type": "address[]"
        },
        {
          "internalType": "uint256[]",
          "name": "amounts",
          "type": "uint256[]"
        }
      ],
      "name": "updateWithdrawals",
      "outputs": [],
      "payable": false,
      "stateMutability": "nonpayable",
      "type": "function"
    },
    {
      "constant": false,
      "inputs": [
        {
          "internalType": "address[]",
          "name": "ERC20Address",
          "type": "address[]"
        },
        {
          "internalType": "address[]",
          "name": "recipients",
          "type": "address[]"
        },
        {
          "internalType": "uint256[]",
          "name": "amounts",
          "type": "uint256[]"
        }
      ],
      "name": "updateWithdrawalsERC20",
      "outputs": [],
      "payable": false,
      "stateMutability": "nonpayable",
      "type": "function"
    },
    {
      "constant": true,
      "inputs": [
        {
          "internalType": "address[]",
          "name": "recipients",
          "type": "address[]"
        }
      ],
      "name": "getWithdrawalsBatch",
      "outputs": [
        {
          "internalType": "uint256[]",
          "name": "",
          "type": "uint256[]"
        }
      ],
      "payable": false,
      "stateMutability": "view",
      "type": "function"
    },
    {
      "constant": true,
      "inputs": [
        {
          "internalType": "address[]",
          "name": "ERC20Address",
          "type": "address[]"
        },
        {
          "internalType": "address[]",
          "name": "recipients",
          "type": "address[]"
        }
      ],
      "name": "getWithdrawalsERC20Batch",
      "outputs": [
        {
          "internalType": "uint256[]",
          "name": "",
          "type": "uint256[]"
        }
      ],
      "payable": false,
      "stateMutability": "view",
      "type": "function"
    },
    {
      "constant": false,
      "inputs": [
        {
          "internalType": "uint256",
          "name": "amount",
          "type": "uint256"
        }
      ],
      "name": "withdraw",
      "outputs": [],
      "payable": false,
      "stateMutability": "nonpayable",
      "type": "function"
    },
    {
      "constant": false,
      "inputs": [],
      "name": "withdraw",
      "outputs": [],
      "payable": false,
      "stateMutability": "nonpayable",
      "type": "function"
    },
    {
      "constant": false,
      "inputs": [
        {
          "internalType": "address payable",
          "name": "from",
          "type": "address"
        },
        {
          "internalType": "uint256",
          "name": "amount",
          "type": "uint256"
        }
      ],
      "name": "withdrawFrom",
      "outputs": [],
      "payable": false,
      "stateMutability": "nonpayable",
      "type": "function"
    },
    {
      "constant": false,
      "inputs": [
        {
          "internalType": "address payable",
          "name": "from",
          "type": "address"
        }
      ],
      "name": "withdrawFrom",
      "outputs": [],
      "payable": false,
      "stateMutability": "nonpayable",
      "type": "function"
    },
    {
      "constant": false,
      "inputs": [
        {
          "internalType": "address",
          "name": "ERC20Address",
          "type": "address"
        },
        {
          "internalType": "uint256",
          "name": "amount",
          "type": "uint256"
        }
      ],
      "name": "withdrawERC20",
      "outputs": [],
      "payable": false,
      "stateMutability": "nonpayable",
      "type": "function"
    },
    {
      "constant": false,
      "inputs": [
        {
          "internalType": "address",
          "name": "ERC20Address",
          "type": "address"
        }
      ],
      "name": "withdrawERC20",
      "outputs": [],
      "payable": false,
      "stateMutability": "nonpayable",
      "type": "function"
    },
    {
      "constant": false,
      "inputs": [
        {
          "internalType": "address",
          "name": "ERC20Address",
          "type": "address"
        },
        {
          "internalType": "address payable",
          "name": "from",
          "type": "address"
        }
      ],
      "name": "withdrawERC20From",
      "outputs": [],
      "payable": false,
      "stateMutability": "nonpayable",
      "type": "function"
    },
    {
      "constant": false,
      "inputs": [
        {
          "internalType": "address",
          "name": "ERC20Address",
          "type": "address"
        },
        {
          "internalType": "address payable",
          "name": "from",
          "type": "address"
        },
        {
          "internalType": "uint256",
          "name": "amount",
          "type": "uint256"
        }
      ],
      "name": "withdrawERC20From",
      "outputs": [],
      "payable": false,
      "stateMutability": "nonpayable",
      "type": "function"
    }
  ],
  "bytecode": "0x608060405234801561001057600080fd5b5060405161168c38038061168c8339818101604052602081101561003357600080fd5b50516001600160a01b038116610094576040517f08c379a00000000000000000000000000000000000000000000000000000000081526004018080602001828103825260288152602001806116646028913960400191505060405180910390fd5b600280546001600160a01b0319166001600160a01b03929092169190911790556115a1806100c36000396000f3fe6080604052600436106100f35760003560e01c8063a51a828c1161008a578063de1b048611610059578063de1b0486146106f6578063ebeaa0a714610729578063f4f3b20014610764578063f99cc2a414610797576100f3565b8063a51a828c1461038c578063a8001d6f146104c0578063b412cf20146104fb578063c7927b74146106b3576100f3565b80637a9262a2116100c65780637a9262a2146102a25780639470b0bd146102e7578063a1db978214610320578063a39a45b714610359576100f3565b80632e1a7d4d146101325780633ccfd60b1461015c5780634b81539e1461017157806359c37cc914610271575b36156101305760405162461bcd60e51b81526004018080602001828103825260328152602001806114566032913960400191505060405180910390fd5b005b34801561013e57600080fd5b506101306004803603602081101561015557600080fd5b50356108cb565b34801561016857600080fd5b506101306108d8565b34801561017d57600080fd5b506102216004803603602081101561019457600080fd5b8101906020810181356401000000008111156101af57600080fd5b8201836020820111156101c157600080fd5b803590602001918460208302840111640100000000831117156101e357600080fd5b9190808060200260200160405190810160405280939291908181526020018383602002808284376000920191909152509295506108f4945050505050565b60408051602080825283518183015283519192839290830191858101910280838360005b8381101561025d578181015183820152602001610245565b505050509050019250505060405180910390f35b34801561027d57600080fd5b50610286610961565b604080516001600160a01b039092168252519081900360200190f35b3480156102ae57600080fd5b506102d5600480360360208110156102c557600080fd5b50356001600160a01b0316610970565b60408051918252519081900360200190f35b3480156102f357600080fd5b506101306004803603604081101561030a57600080fd5b506001600160a01b038135169060200135610982565b34801561032c57600080fd5b506101306004803603604081101561034357600080fd5b506001600160a01b038135169060200135610990565b34801561036557600080fd5b506101306004803603602081101561037c57600080fd5b50356001600160a01b031661099b565b34801561039857600080fd5b50610221600480360360408110156103af57600080fd5b8101906020810181356401000000008111156103ca57600080fd5b8201836020820111156103dc57600080fd5b803590602001918460208302840111640100000000831117156103fe57600080fd5b919080806020026020016040519081016040528093929190818152602001838360200280828437600092019190915250929594936020810193503591505064010000000081111561044e57600080fd5b82018360208201111561046057600080fd5b8035906020019184602083028401116401000000008311171561048257600080fd5b919080806020026020016040519081016040528093929190818152602001838360200280828437600092019190915250929550610a63945050505050565b3480156104cc57600080fd5b50610130600480360360408110156104e357600080fd5b506001600160a01b0381358116916020013516610b49565b34801561050757600080fd5b506101306004803603606081101561051e57600080fd5b81019060208101813564010000000081111561053957600080fd5b82018360208201111561054b57600080fd5b8035906020019184602083028401116401000000008311171561056d57600080fd5b91908080602002602001604051908101604052809392919081815260200183836020028082843760009201919091525092959493602081019350359150506401000000008111156105bd57600080fd5b8201836020820111156105cf57600080fd5b803590602001918460208302840111640100000000831117156105f157600080fd5b919080806020026020016040519081016040528093929190818152602001838360200280828437600092019190915250929594936020810193503591505064010000000081111561064157600080fd5b82018360208201111561065357600080fd5b8035906020019184602083028401116401000000008311171561067557600080fd5b919080806020026020016040519081016040528093929190818152602001838360200280828437600092019190915250929550610b7c945050505050565b3480156106bf57600080fd5b50610130600480360360608110156106d657600080fd5b506001600160a01b03813581169160208101359091169060400135610d23565b34801561070257600080fd5b506101306004803603602081101561071957600080fd5b50356001600160a01b0316610d33565b34801561073557600080fd5b506102d56004803603604081101561074c57600080fd5b506001600160a01b0381358116916020013516610d57565b34801561077057600080fd5b506101306004803603602081101561078757600080fd5b50356001600160a01b0316610d74565b3480156107a357600080fd5b50610130600480360360408110156107ba57600080fd5b8101906020810181356401000000008111156107d557600080fd5b8201836020820111156107e757600080fd5b8035906020019184602083028401116401000000008311171561080957600080fd5b919080806020026020016040519081016040528093929190818152602001838360200280828437600092019190915250929594936020810193503591505064010000000081111561085957600080fd5b82018360208201111561086b57600080fd5b8035906020019184602083028401116401000000008311171561088d57600080fd5b919080806020026020016040519081016040528093929190818152602001838360200280828437600092019190915250929550610da5945050505050565b6108d53382610ecf565b50565b336000818152602081905260409020546108f29190610ecf565b565b60608060005b835181101561095a5760008085838151811061091257fe5b60200260200101516001600160a01b03166001600160a01b031681526020019081526020016000205482828151811061094757fe5b60209081029190910101526001016108fa565b5092915050565b6002546001600160a01b031681565b60006020819052908152604090205481565b61098c8282610ecf565b5050565b61098c338383611093565b6002546001600160a01b031633146109e45760405162461bcd60e51b81526004018080602001828103825260318152602001806113a96031913960400191505060405180910390fd5b6001600160a01b038116610a295760405162461bcd60e51b815260040180806020018281038252602a815260200180611543602a913960400191505060405180910390fd5b600280547fffffffffffffffffffffffff0000000000000000000000000000000000000000166001600160a01b0392909216919091179055565b60608251825114610aa55760405162461bcd60e51b81526004018080602001828103825260428152602001806115016042913960600191505060405180910390fd5b606060005b8351811015610b415760016000868381518110610ac357fe5b60200260200101516001600160a01b03166001600160a01b031681526020019081526020016000206000858381518110610af957fe5b60200260200101516001600160a01b03166001600160a01b0316815260200190815260200160002054828281518110610b2e57fe5b6020908102919091010152600101610aaa565b509392505050565b6001600160a01b0380831660009081526001602090815260408083209385168352929052205461098c9082908490611093565b6002546001600160a01b03163314610bc55760405162461bcd60e51b81526004018080602001828103825260318152602001806113a96031913960400191505060405180910390fd5b6000825111610c055760405162461bcd60e51b815260040180806020018281038252602a8152602001806114d7602a913960400191505060405180910390fd5b8251825114610c455760405162461bcd60e51b81526004018080602001828103825260428152602001806115016042913960600191505060405180910390fd5b8051835114610c855760405162461bcd60e51b815260040180806020018281038252603f815260200180611300603f913960400191505060405180910390fd5b60005b8251811015610d1d57818181518110610c9d57fe5b602002602001015160016000868481518110610cb557fe5b60200260200101516001600160a01b03166001600160a01b031681526020019081526020016000206000858481518110610ceb57fe5b6020908102919091018101516001600160a01b0316825281019190915260400160002080549091019055600101610c88565b50505050565b610d2e828483611093565b505050565b6001600160a01b0381166000908152602081905260409020546108d5908290610ecf565b600160209081526000928352604080842090915290825290205481565b6001600160a01b0381166000908152600160209081526040808320338085529252909120546108d591908390611093565b6002546001600160a01b03163314610dee5760405162461bcd60e51b81526004018080602001828103825260318152602001806113a96031913960400191505060405180910390fd5b6000825111610e2e5760405162461bcd60e51b815260040180806020018281038252602a8152602001806114d7602a913960400191505060405180910390fd5b8051825114610e6e5760405162461bcd60e51b815260040180806020018281038252603b81526020018061136e603b913960400191505060405180910390fd5b60005b8251811015610d2e57818181518110610e8657fe5b6020026020010151600080858481518110610e9d57fe5b6020908102919091018101516001600160a01b0316825281019190915260400160002080549091019055600101610e71565b6001600160a01b038216610f145760405162461bcd60e51b81526004018080602001828103825260288152602001806114af6028913960400191505060405180910390fd5b60008111610f535760405162461bcd60e51b815260040180806020018281038252602f81526020018061133f602f913960400191505060405180910390fd5b6001600160a01b03821660009081526020819052604090205480821115610fab5760405162461bcd60e51b81526004018080602001828103825260328152602001806113da6032913960400191505060405180910390fd5b6001600160a01b038316600081815260208190526040808220805486900390555190919084908381818185875af1925050503d8060008114611009576040519150601f19603f3d011682016040523d82523d6000602084013e61100e565b606091505b505090508061104e5760405162461bcd60e51b815260040180806020018281038252602181526020018061140c6021913960400191505060405180910390fd5b6040805184815290516001600160a01b038616917f7fcf532c15f0a6db0bd6d0e038bea71d30d808c7d98cb3bf7268a95bf5081b65919081900360200190a250505050565b6001600160a01b0383166110d85760405162461bcd60e51b81526004018080602001828103825260288152602001806114af6028913960400191505060405180910390fd5b6001600160a01b03821661111d5760405162461bcd60e51b815260040180806020018281038252602981526020018061142d6029913960400191505060405180910390fd5b6000811161115c5760405162461bcd60e51b815260040180806020018281038252602f81526020018061133f602f913960400191505060405180910390fd5b6001600160a01b03808316600090815260016020908152604080832093871683529290522054808211156111c15760405162461bcd60e51b81526004018080602001828103825260328152602001806113da6032913960400191505060405180910390fd5b6001600160a01b038085166000818152602081815260408083208054889003905580517fa9059cbb00000000000000000000000000000000000000000000000000000000815260048101949094526024840187905251879492939285169263a9059cbb92604480830193919282900301818787803b15801561124257600080fd5b505af1158015611256573d6000803e3d6000fd5b505050506040513d602081101561126c57600080fd5b50519050806112ac5760405162461bcd60e51b81526004018080602001828103825260278152602001806114886027913960400191505060405180910390fd5b856001600160a01b0316856001600160a01b03167fd2708b75549f9f4a149b80f5b152801c0e97e2419aa19930ad9cb1bb4cf4f91d866040518082815260200191505060405180910390a350505050505056fe50756c6c576974686472617761626c653a204552433230416464726573736573206d7573742062652073616d65206c656e67746820617320616d6f756e747350756c6c576974686472617761626c653a20616d6f756e74206d7573742062652067726561746572207468616e203050756c6c576974686472617761626c653a20726563697069656e7473206d7573742062652073616d65206c656e67746820617320616d6f756e747350756c6c576974686472617761626c653a204f6e6c7920747275737465644f776e65722063616e2063616c6c207468697350756c6c576974686472617761626c653a20616d6f756e74206d757374206265206c657373207468616e2062616c616e636550756c6c576974686472617761626c653a205472616e73666572206661696c656450756c6c576974686472617761626c653a2063616e6e6f74206265206e756c6c20636f6e74726163744465706f7369743a2066616c6c6261636b2066756e6374696f6e20646f6573206e6f742074616b6520617267756d656e747350756c6c576974686472617761626c653a204552433230207472616e73666572206661696c656450756c6c576974686472617761626c653a2063616e6e6f74206265206e756c6c206164647265737350756c6c576974686472617761626c653a20726563697069656e7473206d75737420626520676976656e50756c6c576974686472617761626c653a20726563697069656e7473206d7573742062652073616d65206c656e67746820617320455243323041646472657373657350756c6c576974686472617761626c653a206e65774f776e65722063616e6e6f7420626520656d707479a265627a7a72315820cd7508489875a45e7dd8f2fd73b1a0985a153279f68904083875d9061855db6664736f6c634300050c003250756c6c576974686472617761626c653a2063616e6e6f74206265206e756c6c2061646472657373",
  "source": "pragma solidity 0.5.12;\n\nimport \"./IERC20.sol\";\nimport \"./IPullWithdrawable.sol\";\n\ncontract PullWithdrawable is IPullWithdrawable {\n    event Withdrawal(address indexed to, uint256 amount);\n    event WithdrawalERC20(address indexed ERC20Address, address indexed to, uint256 amount);\n\n    mapping (address => uint256) public withdrawals;\n    mapping (address => mapping(address => uint256)) public withdrawalsERC20;\n\n    address payable public trustedOwner;\n\n    constructor (address payable _trustedOwner) public {\n        require(address(0) != _trustedOwner, \"PullWithdrawable: cannot be null address\");\n        trustedOwner = _trustedOwner;\n    }\n\n    function() external payable {\n        require(msg.data.length == 0, \"Deposit: fallback function does not take arguments\");\n    }\n\n    function replaceOwner (address payable newOwner) external {\n        require(msg.sender == trustedOwner, \"PullWithdrawable: Only trustedOwner can call this\");\n        require(address(0) != newOwner, \"PullWithdrawable: newOwner cannot be empty\");\n\n        trustedOwner = newOwner;\n    }\n\n    function updateWithdrawals (address[] memory recipients, uint256[] memory amounts) public {\n        require(msg.sender == trustedOwner, \"PullWithdrawable: Only trustedOwner can call this\");\n        require(recipients.length > 0, \"PullWithdrawable: recipients must be given\");\n        require(recipients.length == amounts.length, \"PullWithdrawable: recipients must be same length as amounts\");\n\n        for(uint256 i = 0; i < recipients.length; i++) {\n            withdrawals[recipients[i]] += amounts[i];\n        }\n    }\n\n    function updateWithdrawalsERC20 (address[] memory ERC20Address, address[] memory recipients, uint256[] memory amounts) public {\n        require(msg.sender == trustedOwner, \"PullWithdrawable: Only trustedOwner can call this\");\n        require(recipients.length > 0, \"PullWithdrawable: recipients must be given\");\n        require(recipients.length == ERC20Address.length, \"PullWithdrawable: recipients must be same length as ERC20Addresses\");\n        require(ERC20Address.length == amounts.length, \"PullWithdrawable: ERC20Addresses must be same length as amounts\");\n\n        for(uint256 i = 0; i < recipients.length; i++) {\n            withdrawalsERC20[ERC20Address[i]][recipients[i]] += amounts[i];\n        }\n    }\n\n    function getWithdrawalsBatch (address[] memory recipients) public view returns(uint256[] memory) {\n        uint256[] memory result;\n\n        for(uint256 i = 0; i < recipients.length; i++) {\n            result[i] = withdrawals[recipients[i]];\n        }\n\n        return result;\n    }\n\n    function getWithdrawalsERC20Batch (address[] memory ERC20Address, address[] memory recipients) public view returns(uint256[] memory) {\n        require(recipients.length == ERC20Address.length, \"PullWithdrawable: recipients must be same length as ERC20Addresses\");\n\n        uint256[] memory result;\n\n        for(uint256 i = 0; i < recipients.length; i++) {\n            result[i] = withdrawalsERC20[ERC20Address[i]][recipients[i]];\n        }\n\n        return result;\n    }\n\n    function withdraw (uint256 amount) public {\n        _withdraw(msg.sender, amount);\n    }\n\n    function withdraw () public {\n        _withdraw(msg.sender, withdrawals[msg.sender]);\n    }\n\n    function withdrawFrom (address payable from) public {\n        _withdraw(from, withdrawals[from]);\n    }\n\n    function withdrawFrom (address payable from, uint256 amount) public {\n        _withdraw(from, amount);\n    }\n\n    function _withdraw (address payable recipient, uint256 amount) internal {\n        require(address(0) != recipient, \"PullWithdrawable: cannot be null address\");\n        require(amount > 0, \"PullWithdrawable: amount must be greater than 0\");\n        uint256 balance = withdrawals[recipient];\n        require(amount <= balance, \"PullWithdrawable: amount must be less than balance\");\n        withdrawals[recipient] -= amount;\n        // Owner can provide whatever gas stipend they want if ie. withdrawing\n        // to a smart contract\n        // solium-disable-next-line security/no-call-value\n        (bool success, ) = recipient.call.value(amount)(\"\");\n        require(success, \"PullWithdrawable: Transfer failed\");\n        emit Withdrawal(recipient, amount);\n    }\n\n    function withdrawERC20 (address ERC20Address, uint256 amount) public {\n        _withdrawERC20(msg.sender, ERC20Address, amount);\n    }\n\n    function withdrawERC20 (address ERC20Address) public {\n        _withdrawERC20(msg.sender, ERC20Address, withdrawalsERC20[ERC20Address][msg.sender]);\n    }\n\n    function withdrawERC20From (address ERC20Address, address payable from) public {\n        _withdrawERC20(from, ERC20Address, withdrawalsERC20[ERC20Address][from]);\n    }\n\n    function withdrawERC20From (address ERC20Address, address payable from, uint256 amount) public {\n        _withdrawERC20(from, ERC20Address, amount);\n    }\n\n    function _withdrawERC20(address payable recipient, address ERC20Address, uint256 amount) internal {\n        require(address(0) != recipient, \"PullWithdrawable: cannot be null address\");\n        require(address(0) != ERC20Address, \"PullWithdrawable: cannot be null contract\");\n        require(amount > 0, \"PullWithdrawable: amount must be greater than 0\");\n        uint256 balance = withdrawalsERC20[ERC20Address][recipient];\n        require(amount <= balance, \"PullWithdrawable: amount must be less than balance\");\n\n        IERC20 erc20Contract = IERC20(ERC20Address);\n        withdrawals[recipient] -= amount;\n\n        bool success = erc20Contract.transfer(recipient, amount);\n        require(success, \"PullWithdrawable: ERC20 transfer failed\");\n        emit WithdrawalERC20(ERC20Address, recipient, amount);\n    }\n}\n",
  "sourcePath": "/Users/emilbayes/development/hyperdivision/eth-multisig-wallet/contracts/PullWithdrawable.sol",
  "compiler": {
    "name": "solc",
    "version": "0.5.12+commit.7709ece9.Emscripten.clang"
  },
  "schemaVersion": "3.0.19",
  "updatedAt": "2020-02-25T02:29:38.727Z",
  "devdoc": {
    "methods": {}
  },
  "userdoc": {
    "methods": {}
  }
}