{
  "contractName": "QuorumOwners",
  "abi": [
    {
      "inputs": [
        {
          "internalType": "address[]",
          "name": "initialOwners",
          "type": "address[]"
        },
        {
          "internalType": "uint32",
          "name": "setQuorumQuorum",
          "type": "uint32"
        },
        {
          "internalType": "uint32",
          "name": "addOwnerQuorum",
          "type": "uint32"
        },
        {
          "internalType": "uint32",
          "name": "removeOwnerQuorum",
          "type": "uint32"
        },
        {
          "internalType": "uint32",
          "name": "replaceOwnerQuorum",
          "type": "uint32"
        }
      ],
      "payable": false,
      "stateMutability": "nonpayable",
      "type": "constructor"
    },
    {
      "payable": true,
      "stateMutability": "payable",
      "type": "fallback"
    },
    {
      "constant": true,
      "inputs": [],
      "name": "allOwners",
      "outputs": [
        {
          "internalType": "address[]",
          "name": "",
          "type": "address[]"
        }
      ],
      "payable": false,
      "stateMutability": "view",
      "type": "function"
    },
    {
      "constant": true,
      "inputs": [
        {
          "internalType": "address",
          "name": "",
          "type": "address"
        }
      ],
      "name": "isOwner",
      "outputs": [
        {
          "internalType": "bool",
          "name": "",
          "type": "bool"
        }
      ],
      "payable": false,
      "stateMutability": "view",
      "type": "function"
    },
    {
      "constant": true,
      "inputs": [
        {
          "internalType": "uint256",
          "name": "",
          "type": "uint256"
        }
      ],
      "name": "owners",
      "outputs": [
        {
          "internalType": "address",
          "name": "",
          "type": "address"
        }
      ],
      "payable": false,
      "stateMutability": "view",
      "type": "function"
    },
    {
      "constant": true,
      "inputs": [
        {
          "internalType": "bytes",
          "name": "",
          "type": "bytes"
        }
      ],
      "name": "quorum",
      "outputs": [
        {
          "internalType": "uint32",
          "name": "",
          "type": "uint32"
        }
      ],
      "payable": false,
      "stateMutability": "view",
      "type": "function"
    },
    {
      "constant": true,
      "inputs": [],
      "name": "seq",
      "outputs": [
        {
          "internalType": "uint256",
          "name": "",
          "type": "uint256"
        }
      ],
      "payable": false,
      "stateMutability": "view",
      "type": "function"
    },
    {
      "constant": true,
      "inputs": [
        {
          "internalType": "bytes",
          "name": "signature",
          "type": "bytes"
        },
        {
          "internalType": "bytes",
          "name": "data",
          "type": "bytes"
        }
      ],
      "name": "verify",
      "outputs": [
        {
          "internalType": "address",
          "name": "",
          "type": "address"
        }
      ],
      "payable": false,
      "stateMutability": "view",
      "type": "function"
    },
    {
      "constant": false,
      "inputs": [
        {
          "internalType": "bytes[]",
          "name": "signatures",
          "type": "bytes[]"
        },
        {
          "internalType": "bytes",
          "name": "operation",
          "type": "bytes"
        },
        {
          "internalType": "uint32",
          "name": "minQuroum",
          "type": "uint32"
        }
      ],
      "name": "setQuorum",
      "outputs": [],
      "payable": false,
      "stateMutability": "nonpayable",
      "type": "function"
    },
    {
      "constant": false,
      "inputs": [
        {
          "internalType": "bytes[]",
          "name": "signatures",
          "type": "bytes[]"
        },
        {
          "internalType": "address",
          "name": "owner",
          "type": "address"
        }
      ],
      "name": "addOwner",
      "outputs": [
        {
          "internalType": "uint256",
          "name": "",
          "type": "uint256"
        }
      ],
      "payable": false,
      "stateMutability": "nonpayable",
      "type": "function"
    },
    {
      "constant": false,
      "inputs": [
        {
          "internalType": "bytes[]",
          "name": "signatures",
          "type": "bytes[]"
        },
        {
          "internalType": "address",
          "name": "owner",
          "type": "address"
        }
      ],
      "name": "removeOwner",
      "outputs": [],
      "payable": false,
      "stateMutability": "nonpayable",
      "type": "function"
    },
    {
      "constant": false,
      "inputs": [
        {
          "internalType": "bytes[]",
          "name": "signatures",
          "type": "bytes[]"
        },
        {
          "internalType": "address",
          "name": "oldOwner",
          "type": "address"
        },
        {
          "internalType": "address",
          "name": "newOwner",
          "type": "address"
        }
      ],
      "name": "replaceOwner",
      "outputs": [],
      "payable": false,
      "stateMutability": "nonpayable",
      "type": "function"
    },
    {
      "constant": false,
      "inputs": [
        {
          "internalType": "bytes[]",
          "name": "signatures",
          "type": "bytes[]"
        },
        {
          "internalType": "address",
          "name": "destination",
          "type": "address"
        },
        {
          "internalType": "bytes4",
          "name": "dstMethod",
          "type": "bytes4"
        },
        {
          "internalType": "uint256",
          "name": "dstValue",
          "type": "uint256"
        },
        {
          "internalType": "bytes",
          "name": "dstData",
          "type": "bytes"
        }
      ],
      "name": "execute",
      "outputs": [],
      "payable": false,
      "stateMutability": "nonpayable",
      "type": "function"
    },
    {
      "constant": false,
      "inputs": [
        {
          "internalType": "bytes[]",
          "name": "signatures",
          "type": "bytes[]"
        },
        {
          "internalType": "address",
          "name": "destination",
          "type": "address"
        },
        {
          "internalType": "bytes4",
          "name": "dstMethod",
          "type": "bytes4"
        },
        {
          "internalType": "uint256",
          "name": "dstValue",
          "type": "uint256"
        },
        {
          "internalType": "bytes",
          "name": "dstData",
          "type": "bytes"
        }
      ],
      "name": "executeType",
      "outputs": [],
      "payable": false,
      "stateMutability": "nonpayable",
      "type": "function"
    }
  ],
  "bytecode": "0x60806040523480156200001157600080fd5b50604051620035d4380380620035d483398101604081905262000034916200044a565b60008551116200007b576040517f08c379a00000000000000000000000000000000000000000000000000000000081526004016200007290620008a3565b60405180910390fd5b60005b8551811015620000bc57620000b28682815181106200009957fe5b6020026020010151620001a860201b620011cf1760201c565b506001016200007e565b50620000f530604051602001620000d4919062000802565b604051602081830303815290604052856200028960201b620013801760201c565b6200012d306040516020016200010c9190620007dc565b604051602081830303815290604052846200028960201b620013801760201c565b620001653060405160200162000144919062000821565b604051602081830303815290604052836200028960201b620013801760201c565b6200019d306040516020016200017c919062000840565b604051602081830303815290604052826200028960201b620013801760201c565b5050505050620009a8565b6000816001600160a01b038116620001ee576040517f08c379a000000000000000000000000000000000000000000000000000000000815260040162000072906200086d565b6001600160a01b038316600090815260208190526040902054839060ff161562000246576040517f08c379a00000000000000000000000000000000000000000000000000000000081526004016200007290620008b5565b60006200025c856001600160e01b036200034f16565b6001600160a01b0386166000908152602081905260409020805460ff191660011790559350505050919050565b60008163ffffffff1611620002cc576040517f08c379a000000000000000000000000000000000000000000000000000000000815260040162000072906200087f565b63ffffffff81811611156200030f576040517f08c379a0000000000000000000000000000000000000000000000000000000008152600401620000729062000891565b806003836040516200032291906200085f565b908152604051908190036020019020805463ffffffff9290921663ffffffff199092169190911790555050565b600180548082018083556000929092527fb10e2d527612073b26eecdfd717e6a320cf44b4afac2b0732d9fcbe2b7fa0cf60180546001600160a01b0384166001600160a01b0319909116179055919050565b8051620003ae8162000983565b92915050565b600082601f830112620003c657600080fd5b8151620003dd620003d782620008ee565b620008c7565b915081818352602084019350602081019050838560208402820111156200040357600080fd5b60005b838110156200043357816200041c8882620003a1565b845250602092830192919091019060010162000406565b5050505092915050565b8051620003ae816200099d565b600080600080600060a086880312156200046357600080fd5b85516001600160401b038111156200047a57600080fd5b6200048888828901620003b4565b95505060206200049b888289016200043d565b9450506040620004ae888289016200043d565b9350506060620004c1888289016200043d565b9250506080620004d4888289016200043d565b9150509295509295909350565b620004f6620004f08262000921565b6200096f565b82525050565b600062000509826200090f565b62000515818562000913565b9350620005278185602086016200093c565b9290920192915050565b60006200054060188362000918565b7f4d756c74694f776e65723a207a65726f20616464726573730000000000000000815260200192915050565b60006200057b60088362000913565b7f6164644f776e6572000000000000000000000000000000000000000000000000815260080192915050565b6000620005b660098362000913565b7f73657451756f72756d0000000000000000000000000000000000000000000000815260090192915050565b6000620005f160288362000918565b7f51756f72756d3a206d696e5175726f756d206d7573742062652067726561746581527f72207468616e2030000000000000000000000000000000000000000000000000602082015260400192915050565b600062000652602b8362000918565b7f51756f72756d3a206d696e5175726f756d206d757374206265206174206d6f7381527f7420707265636973696f6e000000000000000000000000000000000000000000602082015260400192915050565b6000620006b3600b8362000913565b7f72656d6f76654f776e65720000000000000000000000000000000000000000008152600b0192915050565b6000620006ee60238362000918565b7f57616c6c65743a20696e697469616c4f776e657273206d75737420626520676981527f76656e0000000000000000000000000000000000000000000000000000000000602082015260400192915050565b60006200074f60258362000918565b7f4d756c74694f776e65723a20606f776e657260206d757374206e6f742062652081527f6f776e6572000000000000000000000000000000000000000000000000000000602082015260400192915050565b6000620007b0600c8362000913565b7f7265706c6163654f776e657200000000000000000000000000000000000000008152600c0192915050565b6000620007ea8284620004e1565b601482019150620007fb826200056c565b9392505050565b6000620008108284620004e1565b601482019150620007fb82620005a7565b60006200082f8284620004e1565b601482019150620007fb82620006a4565b60006200084e8284620004e1565b601482019150620007fb82620007a1565b6000620007fb8284620004fc565b60208082528101620003ae8162000531565b60208082528101620003ae81620005e2565b60208082528101620003ae8162000643565b60208082528101620003ae81620006df565b60208082528101620003ae8162000740565b6040518181016001600160401b0381118282101715620008e657600080fd5b604052919050565b60006001600160401b038211156200090557600080fd5b5060209081020190565b5190565b919050565b90815260200190565b60006001600160a01b038216620003ae565b63ffffffff1690565b60005b83811015620009595781810151838201526020016200093f565b8381111562000969576000848401525b50505050565b6000620003ae826000620003ae8260601b90565b6200098e8162000921565b81146200099a57600080fd5b50565b6200098e8162000933565b612c1c80620009b86000396000f3fe6080604052600436106100c75760003560e01c8063a12a52dc11610074578063db8191711161004e578063db81917114610237578063dcbeaaf814610264578063f7e83aee14610284576100c7565b8063a12a52dc146101d5578063a417c0de146101f7578063c3969e3a14610217576100c7565b80634fae6f47116100a55780634fae6f47146101805780636857ab40146101a05780639b6e27d1146101b5576100c7565b8063025e7c27146100f05780632f54bf6e14610126578063449e768214610153575b36156100ee5760405162461bcd60e51b81526004016100e590612910565b60405180910390fd5b005b3480156100fc57600080fd5b5061011061010b366004611c7e565b6102a4565b60405161011d9190612864565b60405180910390f35b34801561013257600080fd5b506101466101413660046119f9565b6102cb565b60405161011d9190612883565b34801561015f57600080fd5b5061017361016e366004611a1f565b6102e0565b60405161011d9190612a20565b34801561018c57600080fd5b506100ee61019b366004611ad4565b610535565b3480156101ac57600080fd5b5061017361082a565b3480156101c157600080fd5b506100ee6101d0366004611a1f565b610830565b3480156101e157600080fd5b506101ea610a72565b60405161011d9190612872565b34801561020357600080fd5b506100ee610212366004611ad4565b610ad5565b34801561022357600080fd5b506100ee610232366004611b78565b610ceb565b34801561024357600080fd5b50610257610252366004611bea565b610f31565b60405161011d9190612a2e565b34801561027057600080fd5b506100ee61027f366004611a70565b610f54565b34801561029057600080fd5b5061011061029f366004611c1f565b61118d565b600181815481106102b157fe5b6000918252602090912001546001600160a01b0316905081565b60006020819052908152604090205460ff1681565b6000306040516020016102f391906125cc565b6040516020818303038152906040528330846040516020016103169291906125ee565b60405160208183030381529060405260006003846040516103379190612858565b9081526040519081900360200190205463ffffffff1690508061036c5760405162461bcd60e51b81526004016100e590612950565b600083511161038d5760405162461bcd60e51b81526004016100e5906128e0565b600154835111156103b05760405162461bcd60e51b81526004016100e590612a10565b60015483516000919063ffffffff02816103c657fe5b04905063ffffffff80821611156103ef5760405162461bcd60e51b81526004016100e5906129a0565b8163ffffffff168163ffffffff16101561041b5760405162461bcd60e51b81526004016100e5906129e0565b600080805b86518310156104f457600061044888858151811061043a57fe5b60200260200101518861118d565b6001600160a01b03811660009081526020819052604090205490915060ff166104835760405162461bcd60e51b81526004016100e590612930565b6001548310156104d8576001838154811061049a57fe5b6000918252602090912001546001600160a01b038281169116146104c3576001909201916104d3565b60019283019291909101906104d8565b610483565b6001548314156104e857506104f4565b50600190920191610420565b865181146105145760405162461bcd60e51b81526004016100e5906128f0565b6002805460010190556105268a6111cf565b9b9a5050505050505050505050565b30848460405160200161054a939291906126ae565b6040516020818303038152906040528530868686866040516020016105739594939291906126e5565b60405160208183030381529060405260006003846040516105949190612858565b9081526040519081900360200190205463ffffffff169050806105c95760405162461bcd60e51b81526004016100e590612950565b60008351116105ea5760405162461bcd60e51b81526004016100e5906128e0565b6001548351111561060d5760405162461bcd60e51b81526004016100e590612a10565b60015483516000919063ffffffff028161062357fe5b04905063ffffffff808216111561064c5760405162461bcd60e51b81526004016100e5906129a0565b8163ffffffff168163ffffffff1610156106785760405162461bcd60e51b81526004016100e5906129e0565b600080805b865183101561074357600061069788858151811061043a57fe5b6001600160a01b03811660009081526020819052604090205490915060ff166106d25760405162461bcd60e51b81526004016100e590612930565b60015483101561072757600183815481106106e957fe5b6000918252602090912001546001600160a01b0382811691161461071257600190920191610722565b6001928301929190910190610727565b6106d2565b6001548314156107375750610743565b5060019092019161067d565b865181146107635760405162461bcd60e51b81526004016100e5906128f0565b600260008154809291906001019190505550600060608d6001600160a01b03168c8e8d60405160200161079792919061283c565b60408051601f19818403018152908290526107b191612858565b60006040518083038185875af1925050503d80600081146107ee576040519150601f19603f3d011682016040523d82523d6000602084013e6107f3565b606091505b50915091508181906108185760405162461bcd60e51b81526004016100e591906128cf565b50505050505050505050505050505050565b60025481565b306040516020016108419190612678565b604051602081830303815290604052823083604051602001610864929190612693565b60405160208183030381529060405260006003846040516108859190612858565b9081526040519081900360200190205463ffffffff169050806108ba5760405162461bcd60e51b81526004016100e590612950565b60008351116108db5760405162461bcd60e51b81526004016100e5906128e0565b600154835111156108fe5760405162461bcd60e51b81526004016100e590612a10565b60015483516000919063ffffffff028161091457fe5b04905063ffffffff808216111561093d5760405162461bcd60e51b81526004016100e5906129a0565b8163ffffffff168163ffffffff1610156109695760405162461bcd60e51b81526004016100e5906129e0565b600080805b8651831015610a3457600061098888858151811061043a57fe5b6001600160a01b03811660009081526020819052604090205490915060ff166109c35760405162461bcd60e51b81526004016100e590612930565b600154831015610a1857600183815481106109da57fe5b6000918252602090912001546001600160a01b03828116911614610a0357600190920191610a13565b6001928301929190910190610a18565b6109c3565b600154831415610a285750610a34565b5060019092019161096e565b86518114610a545760405162461bcd60e51b81526004016100e5906128f0565b600280546001019055610a668961126b565b50505050505050505050565b60606001805480602002602001604051908101604052809291908181526020018280548015610aca57602002820191906000526020600020905b81546001600160a01b03168152600190910190602001808311610aac575b505050505090505b90565b30610adf8561131f565b84604051602001610af2939291906127bf565b604051602081830303815290604052853086868686604051602001610b1b9594939291906127a4565b6040516020818303038152906040526000600384604051610b3c9190612858565b9081526040519081900360200190205463ffffffff16905080610b715760405162461bcd60e51b81526004016100e590612950565b6000835111610b925760405162461bcd60e51b81526004016100e5906128e0565b60015483511115610bb55760405162461bcd60e51b81526004016100e590612a10565b60015483516000919063ffffffff0281610bcb57fe5b04905063ffffffff8082161115610bf45760405162461bcd60e51b81526004016100e5906129a0565b8163ffffffff168163ffffffff161015610c205760405162461bcd60e51b81526004016100e5906129e0565b600080805b8651831015610743576000610c3f88858151811061043a57fe5b6001600160a01b03811660009081526020819052604090205490915060ff16610c7a5760405162461bcd60e51b81526004016100e590612930565b600154831015610ccf5760018381548110610c9157fe5b6000918252602090912001546001600160a01b03828116911614610cba57600190920191610cca565b6001928301929190910190610ccf565b610c7a565b600154831415610cdf5750610743565b50600190920191610c25565b30604051602001610cfc919061261f565b60405160208183030381529060405283308484604051602001610d219392919061263a565b6040516020818303038152906040526000600384604051610d429190612858565b9081526040519081900360200190205463ffffffff16905080610d775760405162461bcd60e51b81526004016100e590612950565b6000835111610d985760405162461bcd60e51b81526004016100e5906128e0565b60015483511115610dbb5760405162461bcd60e51b81526004016100e590612a10565b60015483516000919063ffffffff0281610dd157fe5b04905063ffffffff8082161115610dfa5760405162461bcd60e51b81526004016100e5906129a0565b8163ffffffff168163ffffffff161015610e265760405162461bcd60e51b81526004016100e5906129e0565b600080805b8651831015610ef1576000610e4588858151811061043a57fe5b6001600160a01b03811660009081526020819052604090205490915060ff16610e805760405162461bcd60e51b81526004016100e590612930565b600154831015610ed55760018381548110610e9757fe5b6000918252602090912001546001600160a01b03828116911614610ec057600190920191610ed0565b6001928301929190910190610ed5565b610e80565b600154831415610ee55750610ef1565b50600190920191610e2b565b86518114610f115760405162461bcd60e51b81526004016100e5906128f0565b600280546001019055610f248a8a611380565b5050505050505050505050565b805160208183018101805160038252928201919093012091525463ffffffff1681565b30604051602001610f659190612747565b60405160208183030381529060405283308484604051602001610f8a93929190612762565b6040516020818303038152906040526000600384604051610fab9190612858565b9081526040519081900360200190205463ffffffff16905080610fe05760405162461bcd60e51b81526004016100e590612950565b60008351116110015760405162461bcd60e51b81526004016100e5906128e0565b600154835111156110245760405162461bcd60e51b81526004016100e590612a10565b60015483516000919063ffffffff028161103a57fe5b04905063ffffffff80821611156110635760405162461bcd60e51b81526004016100e5906129a0565b8163ffffffff168163ffffffff16101561108f5760405162461bcd60e51b81526004016100e5906129e0565b600080805b865183101561115a5760006110ae88858151811061043a57fe5b6001600160a01b03811660009081526020819052604090205490915060ff166110e95760405162461bcd60e51b81526004016100e590612930565b60015483101561113e576001838154811061110057fe5b6000918252602090912001546001600160a01b0382811691161461112957600190920191611139565b600192830192919091019061113e565b6110e9565b60015483141561114e575061115a565b50600190920191611094565b8651811461117a5760405162461bcd60e51b81526004016100e5906128f0565b600280546001019055610f248a8a611425565b60008061119e846002543086611569565b90506001600160a01b0381166111c65760405162461bcd60e51b81526004016100e590612940565b90505b92915050565b6000816001600160a01b0381166111f85760405162461bcd60e51b81526004016100e590612920565b6001600160a01b038316600090815260208190526040902054839060ff16156112335760405162461bcd60e51b81526004016100e5906129b0565b600061123e85611617565b6001600160a01b0386166000908152602081905260409020805460ff191660011790559350505050919050565b806001600160a01b0381166112925760405162461bcd60e51b81526004016100e590612920565b6001600160a01b038216600090815260208190526040902054829060ff166112cc5760405162461bcd60e51b81526004016100e590612980565b6001546002908111156112f15760405162461bcd60e51b81526004016100e5906129f0565b6112fa84611681565b505050506001600160a01b03166000908152602081905260409020805460ff19169055565b6000813f7fc5d2460186f7233c927e7db2dcc703c0e500b653ca82273b7bfad8045d85a4708114156113635760405162461bcd60e51b81526004016100e590612a00565b806111c95760405162461bcd60e51b81526004016100e5906129c0565b60008163ffffffff16116113a65760405162461bcd60e51b81526004016100e590612960565b63ffffffff81811611156113cc5760405162461bcd60e51b81526004016100e590612970565b806003836040516113dd9190612858565b908152604051908190036020019020805463ffffffff929092167fffffffffffffffffffffffffffffffffffffffffffffffffffffffff000000009092169190911790555050565b816001600160a01b03811661144c5760405162461bcd60e51b81526004016100e590612920565b816001600160a01b0381166114735760405162461bcd60e51b81526004016100e590612920565b6001600160a01b038416600090815260208190526040902054849060ff166114ad5760405162461bcd60e51b81526004016100e590612980565b6001600160a01b038416600090815260208190526040902054849060ff16156114e85760405162461bcd60e51b81526004016100e5906129b0565b8585806001600160a01b0316826001600160a01b0316141561151c5760405162461bcd60e51b81526004016100e5906129d0565b6115268888611766565b5050506001600160a01b03958616600090815260208190526040808220805460ff1990811690915596909716815295909520805490941660011790935550505050565b600084805160411461158d5760405162461bcd60e51b81526004016100e590612900565b8260008151116115af5760405162461bcd60e51b81526004016100e590612990565b6040516000906115e9907f1900000000000000000000000000000000000000000000000000000000000000908990899089906020016127f6565b60405160208183030381529060405280519060200120905061160b81896117ef565b98975050505050505050565b600180548082018083556000929092527fb10e2d527612073b26eecdfd717e6a320cf44b4afac2b0732d9fcbe2b7fa0cf60180546001600160a01b0384167fffffffffffffffffffffffff0000000000000000000000000000000000000000909116179055919050565b600180546000918291600019810190811061169857fe5b60009182526020822001546001600160a01b031691505b60015481101561175b57836001600160a01b0316600182815481106116d057fe5b6000918252602090912001546001600160a01b031614156117535781600182815481106116f957fe5b600091825260209091200180547fffffffffffffffffffffffff0000000000000000000000000000000000000000166001600160a01b039290921691909117905560018054600019019061174d90826118cb565b5061175b565b6001016116af565b505060015492915050565b6000805b60015481101561175b57836001600160a01b03166001828154811061178b57fe5b6000918252602090912001546001600160a01b031614156117e75782600182815481106117b457fe5b9060005260206000200160006101000a8154816001600160a01b0302191690836001600160a01b0316021790555061175b565b60010161176a565b60008151604114611802575060006111c9565b60208201516040830151606084015160001a7f7fffffffffffffffffffffffffffffff5d576e7357a4501ddfe92f46681b20a082111561184857600093505050506111c9565b8060ff16601b1415801561186057508060ff16601c14155b1561187157600093505050506111c9565b600186828585604051600081526020016040526040516118949493929190612891565b6020604051602081039080840390855afa1580156118b6573d6000803e3d6000fd5b5050604051601f190151979650505050505050565b8154818355818111156118ef576000838152602090206118ef9181019083016118f4565b505050565b610ad291905b8082111561190e57600081556001016118fa565b5090565b80356111c981612ba7565b600082601f83011261192e57600080fd5b813561194161193c82612a63565b612a3c565b81815260209384019390925082018360005b8381101561197f57813586016119698882611994565b8452506020928301929190910190600101611953565b5050505092915050565b80356111c981612bbe565b600082601f8301126119a557600080fd5b81356119b361193c82612a84565b915080825260208301602083018583830111156119cf57600080fd5b6119da838284612b39565b50505092915050565b80356111c981612bc7565b80356111c981612bd0565b600060208284031215611a0b57600080fd5b6000611a178484611912565b949350505050565b60008060408385031215611a3257600080fd5b823567ffffffffffffffff811115611a4957600080fd5b611a558582860161191d565b9250506020611a6685828601611912565b9150509250929050565b600080600060608486031215611a8557600080fd5b833567ffffffffffffffff811115611a9c57600080fd5b611aa88682870161191d565b9350506020611ab986828701611912565b9250506040611aca86828701611912565b9150509250925092565b600080600080600060a08688031215611aec57600080fd5b853567ffffffffffffffff811115611b0357600080fd5b611b0f8882890161191d565b9550506020611b2088828901611912565b9450506040611b3188828901611989565b9350506060611b42888289016119e3565b925050608086013567ffffffffffffffff811115611b5f57600080fd5b611b6b88828901611994565b9150509295509295909350565b600080600060608486031215611b8d57600080fd5b833567ffffffffffffffff811115611ba457600080fd5b611bb08682870161191d565b935050602084013567ffffffffffffffff811115611bcd57600080fd5b611bd986828701611994565b9250506040611aca868287016119ee565b600060208284031215611bfc57600080fd5b813567ffffffffffffffff811115611c1357600080fd5b611a1784828501611994565b60008060408385031215611c3257600080fd5b823567ffffffffffffffff811115611c4957600080fd5b611c5585828601611994565b925050602083013567ffffffffffffffff811115611c7257600080fd5b611a6685828601611994565b600060208284031215611c9057600080fd5b6000611a1784846119e3565b6000611ca88383611cc7565b505060200190565b611cc1611cbc82612ac4565b612b75565b82525050565b611cc181612ac4565b6000611cdb82612ab2565b611ce58185612ab6565b9350611cf083612aac565b8060005b83811015611d1e578151611d088882611c9c565b9750611d1383612aac565b925050600101611cf4565b509495945050505050565b611cc181612acf565b611cc1611d3e82612ad4565b610ad2565b611cc181610ad2565b611cc1611d3e82610ad2565b611cc1611d3e82612af9565b6000611d6f82612ab2565b611d798185612abf565b9350611d89818560208601612b45565b9290920192915050565b6000611d9e82612ab2565b611da88185612ab6565b9350611db8818560208601612b45565b611dc181612b91565b9093019392505050565b6000611dd8602c83612ab6565b7f51756f72756d3a204174206c65617374206f6e65207369676e6174757265206d81527f75737420626520676976656e0000000000000000000000000000000000000000602082015260400192915050565b6000611e37602483612ab6565b7f51756f72756d3a20616c6c207369676e617475726573206d757374206265207681527f616c696400000000000000000000000000000000000000000000000000000000602082015260400192915050565b6000611e96603483612ab6565b7f51756f72756d3a207369676e6174757265206d7573742062652036352062797481527f65732028333220732c20333220722c2031207629000000000000000000000000602082015260400192915050565b6000611ef5603183612ab6565b7f57616c6c65743a2066616c6c6261636b2066756e6374696f6e20646f6573206e81527f6f742074616b6520617267756d656e7473000000000000000000000000000000602082015260400192915050565b6000611f54601883612ab6565b7f4d756c74694f776e65723a207a65726f20616464726573730000000000000000815260200192915050565b6000611f8d600883612abf565b7f6164644f776e6572000000000000000000000000000000000000000000000000815260080192915050565b6000611fc6600983612abf565b7f73657451756f72756d0000000000000000000000000000000000000000000000815260090192915050565b6000611fff604083612ab6565b7f51756f72756d3a20696e76616c6964207369676e61747572652028706572686181527f707320696e76616c6964207369676e6572206f722077726f6e67206461746129602082015260400192915050565b600061205e601983612ab6565b7f51756f72756d3a20696e76616c6964207369676e617475726500000000000000815260200192915050565b6000612097603983612ab6565b7f51756f72756d3a206d696e51756f72756d20666f72206f7065726174696f6e2081527f6d7573742062652067726561746572207468616e207a65726f00000000000000602082015260400192915050565b60006120f6602883612ab6565b7f51756f72756d3a206d696e5175726f756d206d7573742062652067726561746581527f72207468616e2030000000000000000000000000000000000000000000000000602082015260400192915050565b6000612155602b83612ab6565b7f51756f72756d3a206d696e5175726f756d206d757374206265206174206d6f7381527f7420707265636973696f6e000000000000000000000000000000000000000000602082015260400192915050565b60006121b4602183612ab6565b7f4d756c74694f776e65723a20606f776e657260206d757374206265206f776e6581527f7200000000000000000000000000000000000000000000000000000000000000602082015260400192915050565b6000612213600b83612abf565b7f72656d6f76654f776e65720000000000000000000000000000000000000000008152600b0192915050565b600061224c601b83612ab6565b7f51756f72756d3a20646174612063616e6e6f74206265206e756c6c0000000000815260200192915050565b6000612285603f83612ab6565b7f51756f72756d3a206e756d626572206f66207369676e617475726573206d757381527f74206265206c657373207468616e2071756f72756d20707265636973696f6e00602082015260400192915050565b60006122e4602583612ab6565b7f4d756c74694f776e65723a20606f776e657260206d757374206e6f742062652081527f6f776e6572000000000000000000000000000000000000000000000000000000602082015260400192915050565b6000612343601583612ab6565b7f456d707479206f72204e6f6e2d6578697374656e740000000000000000000000815260200192915050565b600061237c602883612ab6565b7f4d756c74694f776e65723a20606160206d757374206e6f74206265206571756181527f6c20746f20606260000000000000000000000000000000000000000000000000602082015260400192915050565b60006123db603f83612ab6565b7f51756f72756d3a206d696e5175726f756d206e756d626572206f66207369676e81527f617475726573206d757374206265207374726963746c79206772656174657200602082015260400192915050565b600061243a600783612abf565b7f6578656375746500000000000000000000000000000000000000000000000000815260070192915050565b6000612473601e83612ab6565b7f4d756c74694f776e65723a206d696e4f776e6572732076696f6c617465640000815260200192915050565b60006124ac600783612ab6565b7f4e6f20636f646500000000000000000000000000000000000000000000000000815260200192915050565b60006124e5600c83612abf565b7f7265706c6163654f776e657200000000000000000000000000000000000000008152600c0192915050565b600061251e602883612ab6565b7f51756f72756d3a2045616368206f776e65722063616e207369676e206174206d81527f6f7374206f6e6365000000000000000000000000000000000000000000000000602082015260400192915050565b600061257d600b83612abf565b7f65786563757465547970650000000000000000000000000000000000000000008152600b0192915050565b611cc181612b2a565b611cc16125be82612b2a565b612b86565b611cc181612b33565b60006125d88284611cb0565b6014820191506125e782611f80565b9392505050565b60006125fa8285611cb0565b60148201915061260982611f80565b91506126158284611cb0565b5060140192915050565b600061262b8284611cb0565b6014820191506125e782611fb9565b60006126468286611cb0565b60148201915061265582611fb9565b91506126618285611d64565b915061266d82846125b2565b506004019392505050565b60006126848284611cb0565b6014820191506125e782612206565b600061269f8285611cb0565b60148201915061260982612206565b60006126ba8286611cb0565b6014820191506126c98261242d565b91506126d58285611cb0565b60148201915061266d8284611d58565b60006126f18288611cb0565b6014820191506127008261242d565b915061270c8287611cb0565b60148201915061271c8286611d58565b60048201915061272c8285611d4c565b60208201915061273c8284611d64565b979650505050505050565b60006127538284611cb0565b6014820191506125e7826124d8565b600061276e8286611cb0565b60148201915061277d826124d8565b91506127898285611cb0565b6014820191506127998284611cb0565b506014019392505050565b60006127b08288611cb0565b60148201915061270082612570565b60006127cb8286611cb0565b6014820191506127da82612570565b91506127e68285611d4c565b60208201915061266d8284611d58565b60006128028287611d32565b6001820191506128128286611d4c565b6020820191506128228285611cb0565b6014820191506128328284611d64565b9695505050505050565b60006128488285611d58565b600482019150611a178284611d64565b60006125e78284611d64565b602081016111c98284611cc7565b602080825281016125e78184611cd0565b602081016111c98284611d29565b6080810161289f8287611d43565b6128ac60208301866125c3565b6128b96040830185611d43565b6128c66060830184611d43565b95945050505050565b602080825281016125e78184611d93565b602080825281016111c981611dcb565b602080825281016111c981611e2a565b602080825281016111c981611e89565b602080825281016111c981611ee8565b602080825281016111c981611f47565b602080825281016111c981611ff2565b602080825281016111c981612051565b602080825281016111c98161208a565b602080825281016111c9816120e9565b602080825281016111c981612148565b602080825281016111c9816121a7565b602080825281016111c98161223f565b602080825281016111c981612278565b602080825281016111c9816122d7565b602080825281016111c981612336565b602080825281016111c98161236f565b602080825281016111c9816123ce565b602080825281016111c981612466565b602080825281016111c98161249f565b602080825281016111c981612511565b602081016111c98284611d43565b602081016111c982846125a9565b60405181810167ffffffffffffffff81118282101715612a5b57600080fd5b604052919050565b600067ffffffffffffffff821115612a7a57600080fd5b5060209081020190565b600067ffffffffffffffff821115612a9b57600080fd5b506020601f91909101601f19160190565b60200190565b5190565b90815260200190565b919050565b60006111c982612b1e565b151590565b7fff000000000000000000000000000000000000000000000000000000000000001690565b7fffffffff000000000000000000000000000000000000000000000000000000001690565b6001600160a01b031690565b63ffffffff1690565b60ff1690565b82818337506000910152565b60005b83811015612b60578181015183820152602001612b48565b83811115612b6f576000848401525b50505050565b60006111c98260006111c982612ba1565b60006111c982612b9b565b601f01601f191690565b60e01b90565b60601b90565b612bb081612ac4565b8114612bbb57600080fd5b50565b612bb081612af9565b612bb081610ad2565b612bb081612b2a56fea365627a7a72315820f2baaa7b8aa16f2665a43be237c31d41cb2fd6e050067bde2c0d23de948a3ff86c6578706572696d656e74616cf564736f6c634300050c0040",
  "source": "pragma solidity 0.5.12;\npragma experimental ABIEncoderV2;\npragma experimental SMTChecker;\n\nimport \"./Quorum.sol\";\nimport \"./CodeHash.sol\";\n\ncontract QuorumOwners is Quorum {\n    constructor (\n        address[] memory initialOwners,\n        uint32 setQuorumQuorum,\n        uint32 addOwnerQuorum,\n        uint32 removeOwnerQuorum,\n        uint32 replaceOwnerQuorum\n    ) public {\n        require(initialOwners.length > 0, \"Wallet: initialOwners must be given\");\n\n        for(uint256 i = 0; i < initialOwners.length; i++) {\n            super.addOwner(initialOwners[i]);\n        }\n\n        super.setQuorum(abi.encodePacked(address(this), \"setQuorum\"), setQuorumQuorum);\n        super.setQuorum(abi.encodePacked(address(this), \"addOwner\"), addOwnerQuorum);\n        super.setQuorum(abi.encodePacked(address(this), \"removeOwner\"), removeOwnerQuorum);\n        super.setQuorum(abi.encodePacked(address(this), \"replaceOwner\"), replaceOwnerQuorum);\n    }\n\n    function setQuorum (bytes[] memory signatures, bytes memory operation, uint32 minQuroum)\n        public\n        hasQuorum(\n            abi.encodePacked(address(this), \"setQuorum\"),\n            signatures,\n            // there counld be a potential confusion here since operation is\n            // variable length but as long as there are methods that share the\n            // prefix setQuorum, it is safe\n            abi.encodePacked(address(this), \"setQuorum\", operation, minQuroum)\n        )\n    {\n        super.setQuorum(operation, minQuroum);\n    }\n\n    function addOwner (bytes[] memory signatures, address owner)\n        public\n        hasQuorum(\n            abi.encodePacked(address(this), \"addOwner\"),\n            signatures,\n            abi.encodePacked(address(this), \"addOwner\", owner)\n        )\n        returns (uint256)\n    {\n        return super.addOwner(owner);\n    }\n\n    function removeOwner (bytes[] memory signatures, address owner)\n        public\n        hasQuorum(\n            abi.encodePacked(address(this), \"removeOwner\"),\n            signatures,\n            abi.encodePacked(address(this), \"removeOwner\", owner)\n        )\n    {\n        return super.removeOwner(owner);\n    }\n\n    function replaceOwner (bytes[] memory signatures, address oldOwner, address newOwner)\n        public\n        hasQuorum(\n            abi.encodePacked(address(this), \"replaceOwner\"),\n            signatures,\n            abi.encodePacked(address(this), \"replaceOwner\", oldOwner, newOwner)\n        )\n    {\n        return super.replaceOwner(oldOwner, newOwner);\n    }\n\n    function execute (bytes[] memory signatures, address destination, bytes4 dstMethod, uint256 dstValue, bytes memory dstData)\n        public\n        hasQuorum(\n            abi.encodePacked(address(this), \"execute\", destination, dstMethod),\n            signatures,\n            abi.encodePacked(address(this), \"execute\", destination, dstMethod, dstValue, dstData)\n        )\n    {\n        // solium-disable-next-line security/no-call-value\n        (bool success, bytes memory returnData) = destination.call.value(dstValue)(abi.encodePacked(dstMethod, dstData));\n        require(success, string(returnData));\n    }\n\n    function executeType (\n        bytes[] memory signatures,\n        address destination,\n        bytes4 dstMethod,\n        uint256 dstValue,\n\n        bytes memory dstData\n    ) public\n        hasQuorum(\n            abi.encodePacked(address(this), \"executeType\", CodeHash.at(destination), dstMethod),\n            signatures,\n            abi.encodePacked(address(this), \"executeType\", destination, dstMethod, dstValue, dstData)\n        )\n    {\n        // solium-disable-next-line security/no-call-value\n        (bool success, bytes memory returnData) = destination.call.value(dstValue)(abi.encodePacked(dstMethod, dstData));\n        require(success, string(returnData));\n    }\n\n    function () external payable {\n        require(msg.data.length == 0, \"Wallet: fallback function does not take arguments\");\n    }\n}\n",
  "sourcePath": "/Users/emilbayes/development/hyperdivision/eth-multisig-wallet/contracts/QuorumOwners.sol",
  "compiler": {
    "name": "solc",
    "version": "0.5.12+commit.7709ece9.Emscripten.clang"
  },
  "schemaVersion": "3.0.19",
  "updatedAt": "2020-02-25T02:29:38.733Z",
  "devdoc": {
    "methods": {}
  },
  "userdoc": {
    "methods": {}
  }
}